{
  "_format": "hh-sol-artifact-1",
  "contractName": "InstituteandStudent",
  "sourceName": "contracts/InstituteandStudent.sol",
  "abi": [
    {
      "inputs": [
        {
          "internalType": "string",
          "name": "_name",
          "type": "string"
        },
        {
          "internalType": "string",
          "name": "_uid",
          "type": "string"
        },
        {
          "internalType": "string",
          "name": "_password",
          "type": "string"
        }
      ],
      "name": "addStudent",
      "outputs": [],
      "stateMutability": "nonpayable",
      "type": "function"
    },
    {
      "inputs": [
        {
          "internalType": "string",
          "name": "_name",
          "type": "string"
        },
        {
          "internalType": "string",
          "name": "_code",
          "type": "string"
        },
        {
          "internalType": "string",
          "name": "_password",
          "type": "string"
        }
      ],
      "name": "addUniversity",
      "outputs": [],
      "stateMutability": "nonpayable",
      "type": "function"
    },
    {
      "inputs": [
        {
          "internalType": "string",
          "name": "_uid",
          "type": "string"
        },
        {
          "internalType": "string",
          "name": "_code",
          "type": "string"
        }
      ],
      "name": "enrollStudent",
      "outputs": [],
      "stateMutability": "nonpayable",
      "type": "function"
    },
    {
      "inputs": [
        {
          "internalType": "string",
          "name": "_code",
          "type": "string"
        }
      ],
      "name": "getStudentsinUniversity",
      "outputs": [
        {
          "components": [
            {
              "internalType": "string",
              "name": "name",
              "type": "string"
            },
            {
              "internalType": "string",
              "name": "uid",
              "type": "string"
            },
            {
              "internalType": "string",
              "name": "password",
              "type": "string"
            },
            {
              "internalType": "address",
              "name": "walletAddress",
              "type": "address"
            },
            {
              "internalType": "string[]",
              "name": "instituteCode",
              "type": "string[]"
            }
          ],
          "internalType": "struct InstituteandStudent.Student[]",
          "name": "",
          "type": "tuple[]"
        }
      ],
      "stateMutability": "view",
      "type": "function"
    },
    {
      "inputs": [
        {
          "internalType": "string",
          "name": "_code",
          "type": "string"
        }
      ],
      "name": "getUniversity",
      "outputs": [
        {
          "internalType": "string",
          "name": "",
          "type": "string"
        },
        {
          "internalType": "string",
          "name": "",
          "type": "string"
        },
        {
          "internalType": "address",
          "name": "",
          "type": "address"
        },
        {
          "internalType": "string[]",
          "name": "",
          "type": "string[]"
        }
      ],
      "stateMutability": "view",
      "type": "function"
    },
    {
      "inputs": [
        {
          "internalType": "string",
          "name": "_uid",
          "type": "string"
        }
      ],
      "name": "getUniversityinStudent",
      "outputs": [
        {
          "components": [
            {
              "internalType": "string",
              "name": "code",
              "type": "string"
            },
            {
              "internalType": "string",
              "name": "name",
              "type": "string"
            },
            {
              "internalType": "string",
              "name": "password",
              "type": "string"
            },
            {
              "internalType": "address",
              "name": "walletAddress",
              "type": "address"
            },
            {
              "internalType": "string[]",
              "name": "studentUIDs",
              "type": "string[]"
            }
          ],
          "internalType": "struct InstituteandStudent.Institutes[]",
          "name": "",
          "type": "tuple[]"
        }
      ],
      "stateMutability": "view",
      "type": "function"
    },
    {
      "inputs": [
        {
          "internalType": "string",
          "name": "_uid",
          "type": "string"
        },
        {
          "internalType": "string",
          "name": "_password",
          "type": "string"
        }
      ],
      "name": "loginStudent",
      "outputs": [
        {
          "internalType": "string",
          "name": "",
          "type": "string"
        },
        {
          "internalType": "string",
          "name": "",
          "type": "string"
        },
        {
          "internalType": "address",
          "name": "",
          "type": "address"
        },
        {
          "internalType": "string[]",
          "name": "",
          "type": "string[]"
        }
      ],
      "stateMutability": "view",
      "type": "function"
    },
    {
      "inputs": [
        {
          "internalType": "string",
          "name": "_code",
          "type": "string"
        },
        {
          "internalType": "string",
          "name": "_password",
          "type": "string"
        }
      ],
      "name": "loginUniversity",
      "outputs": [
        {
          "internalType": "string",
          "name": "",
          "type": "string"
        },
        {
          "internalType": "string",
          "name": "",
          "type": "string"
        },
        {
          "internalType": "address",
          "name": "",
          "type": "address"
        },
        {
          "internalType": "string[]",
          "name": "",
          "type": "string[]"
        }
      ],
      "stateMutability": "view",
      "type": "function"
    }
  ],
  "bytecode": "0x608060405234801561001057600080fd5b50613033806100206000396000f3fe608060405234801561001057600080fd5b50600436106100885760003560e01c8063890cfd3d1161005b578063890cfd3d14610128578063aa518b901461015b578063d75162c514610177578063edd2cda3146101aa57610088565b80630e9fc6d11461008d57806330b37026146100bd5780634bf0c2b3146100d95780636c342b60146100f5575b600080fd5b6100a760048036038101906100a2919061259f565b6101da565b6040516100b491906128c0565b60405180910390f35b6100d760048036038101906100d291906128e2565b6107b7565b005b6100f360048036038101906100ee9190612989565b610ade565b005b61010f600480360381019061010a9190612989565b610cda565b60405161011f9493929190612ae0565b60405180910390f35b610142600480360381019061013d9190612989565b61112a565b6040516101529493929190612ae0565b60405180910390f35b610175600480360381019061017091906128e2565b61157a565b005b610191600480360381019061018c919061259f565b6118a1565b6040516101a19493929190612ae0565b60405180910390f35b6101c460048036038101906101bf919061259f565b611c76565b6040516101d19190612c87565b60405180910390f35b606060005b60008054905081101561075457826040516020016101fd9190612ce5565b604051602081830303815290604052805190602001206000828154811061022757610226612cfc565b5b90600052602060002090600502016000016040516020016102489190612e20565b60405160208183030381529060405280519060200120141561074157600080828154811061027957610278612cfc565b5b90600052602060002090600502016004018054905067ffffffffffffffff8111156102a7576102a6612474565b5b6040519080825280602002602001820160405280156102e057816020015b6102cd612254565b8152602001906001900390816102c55790505b50905060005b600083815481106102fa576102f9612cfc565b5b9060005260206000209060050201600401805490508110156107365760005b600180549050811015610722576000848154811061033a57610339612cfc565b5b9060005260206000209060050201600401828154811061035d5761035c612cfc565b5b906000526020600020016040516020016103779190612e20565b60405160208183030381529060405280519060200120600182815481106103a1576103a0612cfc565b5b90600052602060002090600502016001016040516020016103c29190612e20565b60405160208183030381529060405280519060200120141561070f57600181815481106103f2576103f1612cfc565b5b90600052602060002090600502016040518060a001604052908160008201805461041b90612d5a565b80601f016020809104026020016040519081016040528092919081815260200182805461044790612d5a565b80156104945780601f1061046957610100808354040283529160200191610494565b820191906000526020600020905b81548152906001019060200180831161047757829003601f168201915b505050505081526020016001820180546104ad90612d5a565b80601f01602080910402602001604051908101604052809291908181526020018280546104d990612d5a565b80156105265780601f106104fb57610100808354040283529160200191610526565b820191906000526020600020905b81548152906001019060200180831161050957829003601f168201915b5050505050815260200160028201805461053f90612d5a565b80601f016020809104026020016040519081016040528092919081815260200182805461056b90612d5a565b80156105b85780601f1061058d576101008083540402835291602001916105b8565b820191906000526020600020905b81548152906001019060200180831161059b57829003601f168201915b505050505081526020016003820160009054906101000a900473ffffffffffffffffffffffffffffffffffffffff1673ffffffffffffffffffffffffffffffffffffffff1673ffffffffffffffffffffffffffffffffffffffff16815260200160048201805480602002602001604051908101604052809291908181526020016000905b828210156106e857838290600052602060002001805461065b90612d5a565b80601f016020809104026020016040519081016040528092919081815260200182805461068790612d5a565b80156106d45780601f106106a9576101008083540402835291602001916106d4565b820191906000526020600020905b8154815290600101906020018083116106b757829003601f168201915b50505050508152602001906001019061063c565b505050508152505083838151811061070357610702612cfc565b5b60200260200101819052505b808061071a90612e70565b915050610319565b50808061072e90612e70565b9150506102e6565b5080925050506107b2565b808061074c90612e70565b9150506101df565b5060008067ffffffffffffffff81111561077157610770612474565b5b6040519080825280602002602001820160405280156107aa57816020015b610797612254565b81526020019060019003908161078f5790505b509050809150505b919050565b60005b60008054905081101561088d57826040516020016107d89190612ce5565b604051602081830303815290604052805190602001206000828154811061080257610801612cfc565b5b90600052602060002090600502016000016040516020016108239190612e20565b60405160208183030381529060405280519060200120141561087a576040517f08c379a000000000000000000000000000000000000000000000000000000000815260040161087190612f05565b60405180910390fd5b808061088590612e70565b9150506107ba565b5060005b600080549050811015610965573373ffffffffffffffffffffffffffffffffffffffff16600082815481106108c9576108c8612cfc565b5b906000526020600020906005020160030160009054906101000a900473ffffffffffffffffffffffffffffffffffffffff1673ffffffffffffffffffffffffffffffffffffffff161415610952576040517f08c379a000000000000000000000000000000000000000000000000000000000815260040161094990612f05565b60405180910390fd5b808061095d90612e70565b915050610891565b5060006040518060a001604052808481526020018581526020018381526020013373ffffffffffffffffffffffffffffffffffffffff168152602001600067ffffffffffffffff8111156109bc576109bb612474565b5b6040519080825280602002602001820160405280156109ef57816020015b60608152602001906001900390816109da5790505b5081525090806001815401808255809150506001900390600052602060002090600502016000909190919091506000820151816000019080519060200190610a38929190612299565b506020820151816001019080519060200190610a55929190612299565b506040820151816002019080519060200190610a72929190612299565b5060608201518160030160006101000a81548173ffffffffffffffffffffffffffffffffffffffff021916908373ffffffffffffffffffffffffffffffffffffffff1602179055506080820151816004019080519060200190610ad692919061231f565b505050505050565b60005b600080549050811015610bd95781604051602001610aff9190612ce5565b6040516020818303038152906040528051906020012060008281548110610b2957610b28612cfc565b5b9060005260206000209060050201600001604051602001610b4a9190612e20565b604051602081830303815290604052805190602001201415610bc65760008181548110610b7a57610b79612cfc565b5b906000526020600020906005020160040183908060018154018082558091505060019003906000526020600020016000909190919091509080519060200190610bc4929190612299565b505b8080610bd190612e70565b915050610ae1565b5060005b600180549050811015610cd55782604051602001610bfb9190612ce5565b6040516020818303038152906040528051906020012060018281548110610c2557610c24612cfc565b5b9060005260206000209060050201600101604051602001610c469190612e20565b604051602081830303815290604052805190602001201415610cc25760018181548110610c7657610c75612cfc565b5b906000526020600020906005020160040182908060018154018082558091505060019003906000526020600020016000909190919091509080519060200190610cc0929190612299565b505b8080610ccd90612e70565b915050610bdd565b505050565b6060806000606060005b6000805490508110156110a35786604051602001610d029190612ce5565b6040516020818303038152906040528051906020012060008281548110610d2c57610d2b612cfc565b5b9060005260206000209060050201600001604051602001610d4d9190612e20565b6040516020818303038152906040528051906020012014156110905785604051602001610d7a9190612ce5565b6040516020818303038152906040528051906020012060008281548110610da457610da3612cfc565b5b9060005260206000209060050201600201604051602001610dc59190612e20565b60405160208183030381529060405280519060200120141561108f5760008181548110610df557610df4612cfc565b5b906000526020600020906005020160000160008281548110610e1a57610e19612cfc565b5b906000526020600020906005020160010160008381548110610e3f57610e3e612cfc565b5b906000526020600020906005020160030160009054906101000a900473ffffffffffffffffffffffffffffffffffffffff1660008481548110610e8557610e84612cfc565b5b9060005260206000209060050201600401838054610ea290612d5a565b80601f0160208091040260200160405190810160405280929190818152602001828054610ece90612d5a565b8015610f1b5780601f10610ef057610100808354040283529160200191610f1b565b820191906000526020600020905b815481529060010190602001808311610efe57829003601f168201915b50505050509350828054610f2e90612d5a565b80601f0160208091040260200160405190810160405280929190818152602001828054610f5a90612d5a565b8015610fa75780601f10610f7c57610100808354040283529160200191610fa7565b820191906000526020600020905b815481529060010190602001808311610f8a57829003601f168201915b5050505050925080805480602002602001604051908101604052809291908181526020016000905b8282101561107b578382906000526020600020018054610fee90612d5a565b80601f016020809104026020016040519081016040528092919081815260200182805461101a90612d5a565b80156110675780601f1061103c57610100808354040283529160200191611067565b820191906000526020600020905b81548152906001019060200180831161104a57829003601f168201915b505050505081526020019060010190610fcf565b505050509050945094509450945050611121565b5b808061109b90612e70565b915050610ce4565b5060008067ffffffffffffffff8111156110c0576110bf612474565b5b6040519080825280602002602001820160405280156110f357816020015b60608152602001906001900390816110de5790505b5060405180602001604052806000815250919060405180602001604052806000815250919093509350935093505b92959194509250565b6060806000606060005b6001805490508110156114f357866040516020016111529190612ce5565b604051602081830303815290604052805190602001206001828154811061117c5761117b612cfc565b5b906000526020600020906005020160010160405160200161119d9190612e20565b6040516020818303038152906040528051906020012014156114e057856040516020016111ca9190612ce5565b60405160208183030381529060405280519060200120600182815481106111f4576111f3612cfc565b5b90600052602060002090600502016002016040516020016112159190612e20565b6040516020818303038152906040528051906020012014156114df576001818154811061124557611244612cfc565b5b90600052602060002090600502016000016001828154811061126a57611269612cfc565b5b90600052602060002090600502016001016001838154811061128f5761128e612cfc565b5b906000526020600020906005020160030160009054906101000a900473ffffffffffffffffffffffffffffffffffffffff16600184815481106112d5576112d4612cfc565b5b90600052602060002090600502016004018380546112f290612d5a565b80601f016020809104026020016040519081016040528092919081815260200182805461131e90612d5a565b801561136b5780601f106113405761010080835404028352916020019161136b565b820191906000526020600020905b81548152906001019060200180831161134e57829003601f168201915b5050505050935082805461137e90612d5a565b80601f01602080910402602001604051908101604052809291908181526020018280546113aa90612d5a565b80156113f75780601f106113cc576101008083540402835291602001916113f7565b820191906000526020600020905b8154815290600101906020018083116113da57829003601f168201915b5050505050925080805480602002602001604051908101604052809291908181526020016000905b828210156114cb57838290600052602060002001805461143e90612d5a565b80601f016020809104026020016040519081016040528092919081815260200182805461146a90612d5a565b80156114b75780601f1061148c576101008083540402835291602001916114b7565b820191906000526020600020905b81548152906001019060200180831161149a57829003601f168201915b50505050508152602001906001019061141f565b505050509050945094509450945050611571565b5b80806114eb90612e70565b915050611134565b5060008067ffffffffffffffff8111156115105761150f612474565b5b60405190808252806020026020018201604052801561154357816020015b606081526020019060019003908161152e5790505b5060405180602001604052806000815250919060405180602001604052806000815250919093509350935093505b92959194509250565b60005b600180549050811015611650578260405160200161159b9190612ce5565b60405160208183030381529060405280519060200120600182815481106115c5576115c4612cfc565b5b90600052602060002090600502016001016040516020016115e69190612e20565b60405160208183030381529060405280519060200120141561163d576040517f08c379a000000000000000000000000000000000000000000000000000000000815260040161163490612f71565b60405180910390fd5b808061164890612e70565b91505061157d565b5060005b600180549050811015611728573373ffffffffffffffffffffffffffffffffffffffff166001828154811061168c5761168b612cfc565b5b906000526020600020906005020160030160009054906101000a900473ffffffffffffffffffffffffffffffffffffffff1673ffffffffffffffffffffffffffffffffffffffff161415611715576040517f08c379a000000000000000000000000000000000000000000000000000000000815260040161170c90612fdd565b60405180910390fd5b808061172090612e70565b915050611654565b5060016040518060a001604052808581526020018481526020018381526020013373ffffffffffffffffffffffffffffffffffffffff168152602001600067ffffffffffffffff81111561177f5761177e612474565b5b6040519080825280602002602001820160405280156117b257816020015b606081526020019060019003908161179d5790505b50815250908060018154018082558091505060019003906000526020600020906005020160009091909190915060008201518160000190805190602001906117fb929190612299565b506020820151816001019080519060200190611818929190612299565b506040820151816002019080519060200190611835929190612299565b5060608201518160030160006101000a81548173ffffffffffffffffffffffffffffffffffffffff021916908373ffffffffffffffffffffffffffffffffffffffff160217905550608082015181600401908051906020019061189992919061231f565b505050505050565b6060806000606060005b600080549050811015611bf157856040516020016118c99190612ce5565b60405160208183030381529060405280519060200120600082815481106118f3576118f2612cfc565b5b90600052602060002090600502016000016040516020016119149190612e20565b604051602081830303815290604052805190602001201415611bde576000818154811061194457611943612cfc565b5b90600052602060002090600502016000016000828154811061196957611968612cfc565b5b90600052602060002090600502016001016000838154811061198e5761198d612cfc565b5b906000526020600020906005020160030160009054906101000a900473ffffffffffffffffffffffffffffffffffffffff16600084815481106119d4576119d3612cfc565b5b90600052602060002090600502016004018380546119f190612d5a565b80601f0160208091040260200160405190810160405280929190818152602001828054611a1d90612d5a565b8015611a6a5780601f10611a3f57610100808354040283529160200191611a6a565b820191906000526020600020905b815481529060010190602001808311611a4d57829003601f168201915b50505050509350828054611a7d90612d5a565b80601f0160208091040260200160405190810160405280929190818152602001828054611aa990612d5a565b8015611af65780601f10611acb57610100808354040283529160200191611af6565b820191906000526020600020905b815481529060010190602001808311611ad957829003601f168201915b5050505050925080805480602002602001604051908101604052809291908181526020016000905b82821015611bca578382906000526020600020018054611b3d90612d5a565b80601f0160208091040260200160405190810160405280929190818152602001828054611b6990612d5a565b8015611bb65780601f10611b8b57610100808354040283529160200191611bb6565b820191906000526020600020905b815481529060010190602001808311611b9957829003601f168201915b505050505081526020019060010190611b1e565b505050509050945094509450945050611c6f565b8080611be990612e70565b9150506118ab565b5060008067ffffffffffffffff811115611c0e57611c0d612474565b5b604051908082528060200260200182016040528015611c4157816020015b6060815260200190600190039081611c2c5790505b5060405180602001604052806000815250919060405180602001604052806000815250919093509350935093505b9193509193565b606060005b6001805490508110156121f15782604051602001611c999190612ce5565b6040516020818303038152906040528051906020012060018281548110611cc357611cc2612cfc565b5b9060005260206000209060050201600101604051602001611ce49190612e20565b6040516020818303038152906040528051906020012014156121de57600060018281548110611d1657611d15612cfc565b5b90600052602060002090600502016004018054905067ffffffffffffffff811115611d4457611d43612474565b5b604051908082528060200260200182016040528015611d7d57816020015b611d6a61237f565b815260200190600190039081611d625790505b50905060005b60018381548110611d9757611d96612cfc565b5b9060005260206000209060050201600401805490508110156121d35760005b6000805490508110156121bf5760018481548110611dd757611dd6612cfc565b5b90600052602060002090600502016004018281548110611dfa57611df9612cfc565b5b90600052602060002001604051602001611e149190612e20565b6040516020818303038152906040528051906020012060008281548110611e3e57611e3d612cfc565b5b9060005260206000209060050201600001604051602001611e5f9190612e20565b6040516020818303038152906040528051906020012014156121ac5760008181548110611e8f57611e8e612cfc565b5b90600052602060002090600502016040518060a0016040529081600082018054611eb890612d5a565b80601f0160208091040260200160405190810160405280929190818152602001828054611ee490612d5a565b8015611f315780601f10611f0657610100808354040283529160200191611f31565b820191906000526020600020905b815481529060010190602001808311611f1457829003601f168201915b50505050508152602001600182018054611f4a90612d5a565b80601f0160208091040260200160405190810160405280929190818152602001828054611f7690612d5a565b8015611fc35780601f10611f9857610100808354040283529160200191611fc3565b820191906000526020600020905b815481529060010190602001808311611fa657829003601f168201915b50505050508152602001600282018054611fdc90612d5a565b80601f016020809104026020016040519081016040528092919081815260200182805461200890612d5a565b80156120555780601f1061202a57610100808354040283529160200191612055565b820191906000526020600020905b81548152906001019060200180831161203857829003601f168201915b505050505081526020016003820160009054906101000a900473ffffffffffffffffffffffffffffffffffffffff1673ffffffffffffffffffffffffffffffffffffffff1673ffffffffffffffffffffffffffffffffffffffff16815260200160048201805480602002602001604051908101604052809291908181526020016000905b828210156121855783829060005260206000200180546120f890612d5a565b80601f016020809104026020016040519081016040528092919081815260200182805461212490612d5a565b80156121715780601f1061214657610100808354040283529160200191612171565b820191906000526020600020905b81548152906001019060200180831161215457829003601f168201915b5050505050815260200190600101906120d9565b50505050815250508383815181106121a05761219f612cfc565b5b60200260200101819052505b80806121b790612e70565b915050611db6565b5080806121cb90612e70565b915050611d83565b50809250505061224f565b80806121e990612e70565b915050611c7b565b5060008067ffffffffffffffff81111561220e5761220d612474565b5b60405190808252806020026020018201604052801561224757816020015b61223461237f565b81526020019060019003908161222c5790505b509050809150505b919050565b6040518060a00160405280606081526020016060815260200160608152602001600073ffffffffffffffffffffffffffffffffffffffff168152602001606081525090565b8280546122a590612d5a565b90600052602060002090601f0160209004810192826122c7576000855561230e565b82601f106122e057805160ff191683800117855561230e565b8280016001018555821561230e579182015b8281111561230d5782518255916020019190600101906122f2565b5b50905061231b91906123c4565b5090565b82805482825590600052602060002090810192821561236e579160200282015b8281111561236d57825182908051906020019061235d929190612299565b509160200191906001019061233f565b5b50905061237b91906123e1565b5090565b6040518060a00160405280606081526020016060815260200160608152602001600073ffffffffffffffffffffffffffffffffffffffff168152602001606081525090565b5b808211156123dd5760008160009055506001016123c5565b5090565b5b8082111561240157600081816123f89190612405565b506001016123e2565b5090565b50805461241190612d5a565b6000825580601f106124235750612442565b601f01602090049060005260206000209081019061244191906123c4565b5b50565b6000604051905090565b600080fd5b600080fd5b600080fd5b600080fd5b6000601f19601f8301169050919050565b7f4e487b7100000000000000000000000000000000000000000000000000000000600052604160045260246000fd5b6124ac82612463565b810181811067ffffffffffffffff821117156124cb576124ca612474565b5b80604052505050565b60006124de612445565b90506124ea82826124a3565b919050565b600067ffffffffffffffff82111561250a57612509612474565b5b61251382612463565b9050602081019050919050565b82818337600083830152505050565b600061254261253d846124ef565b6124d4565b90508281526020810184848401111561255e5761255d61245e565b5b612569848285612520565b509392505050565b600082601f83011261258657612585612459565b5b813561259684826020860161252f565b91505092915050565b6000602082840312156125b5576125b461244f565b5b600082013567ffffffffffffffff8111156125d3576125d2612454565b5b6125df84828501612571565b91505092915050565b600081519050919050565b600082825260208201905092915050565b6000819050602082019050919050565b600081519050919050565b600082825260208201905092915050565b60005b8381101561264e578082015181840152602081019050612633565b8381111561265d576000848401525b50505050565b600061266e82612614565b612678818561261f565b9350612688818560208601612630565b61269181612463565b840191505092915050565b600073ffffffffffffffffffffffffffffffffffffffff82169050919050565b60006126c78261269c565b9050919050565b6126d7816126bc565b82525050565b600081519050919050565b600082825260208201905092915050565b6000819050602082019050919050565b60006127158383612663565b905092915050565b6000602082019050919050565b6000612735826126dd565b61273f81856126e8565b935083602082028501612751856126f9565b8060005b8581101561278d578484038952815161276e8582612709565b94506127798361271d565b925060208a01995050600181019050612755565b50829750879550505050505092915050565b600060a08301600083015184820360008601526127bc8282612663565b915050602083015184820360208601526127d68282612663565b915050604083015184820360408601526127f08282612663565b915050606083015161280560608601826126ce565b506080830151848203608086015261281d828261272a565b9150508091505092915050565b6000612836838361279f565b905092915050565b6000602082019050919050565b6000612856826125e8565b61286081856125f3565b93508360208202850161287285612604565b8060005b858110156128ae578484038952815161288f858261282a565b945061289a8361283e565b925060208a01995050600181019050612876565b50829750879550505050505092915050565b600060208201905081810360008301526128da818461284b565b905092915050565b6000806000606084860312156128fb576128fa61244f565b5b600084013567ffffffffffffffff81111561291957612918612454565b5b61292586828701612571565b935050602084013567ffffffffffffffff81111561294657612945612454565b5b61295286828701612571565b925050604084013567ffffffffffffffff81111561297357612972612454565b5b61297f86828701612571565b9150509250925092565b600080604083850312156129a05761299f61244f565b5b600083013567ffffffffffffffff8111156129be576129bd612454565b5b6129ca85828601612571565b925050602083013567ffffffffffffffff8111156129eb576129ea612454565b5b6129f785828601612571565b9150509250929050565b600082825260208201905092915050565b6000612a1d82612614565b612a278185612a01565b9350612a37818560208601612630565b612a4081612463565b840191505092915050565b612a54816126bc565b82525050565b600082825260208201905092915050565b6000612a76826126dd565b612a808185612a5a565b935083602082028501612a92856126f9565b8060005b85811015612ace5784840389528151612aaf8582612709565b9450612aba8361271d565b925060208a01995050600181019050612a96565b50829750879550505050505092915050565b60006080820190508181036000830152612afa8187612a12565b90508181036020830152612b0e8186612a12565b9050612b1d6040830185612a4b565b8181036060830152612b2f8184612a6b565b905095945050505050565b600081519050919050565b600082825260208201905092915050565b6000819050602082019050919050565b600060a0830160008301518482036000860152612b838282612663565b91505060208301518482036020860152612b9d8282612663565b91505060408301518482036040860152612bb78282612663565b9150506060830151612bcc60608601826126ce565b5060808301518482036080860152612be4828261272a565b9150508091505092915050565b6000612bfd8383612b66565b905092915050565b6000602082019050919050565b6000612c1d82612b3a565b612c278185612b45565b935083602082028501612c3985612b56565b8060005b85811015612c755784840389528151612c568582612bf1565b9450612c6183612c05565b925060208a01995050600181019050612c3d565b50829750879550505050505092915050565b60006020820190508181036000830152612ca18184612c12565b905092915050565b600081905092915050565b6000612cbf82612614565b612cc98185612ca9565b9350612cd9818560208601612630565b80840191505092915050565b6000612cf18284612cb4565b915081905092915050565b7f4e487b7100000000000000000000000000000000000000000000000000000000600052603260045260246000fd5b7f4e487b7100000000000000000000000000000000000000000000000000000000600052602260045260246000fd5b60006002820490506001821680612d7257607f821691505b60208210811415612d8657612d85612d2b565b5b50919050565b60008190508160005260206000209050919050565b60008154612dae81612d5a565b612db88186612ca9565b94506001821660008114612dd35760018114612de457612e17565b60ff19831686528186019350612e17565b612ded85612d8c565b60005b83811015612e0f57815481890152600182019150602081019050612df0565b838801955050505b50505092915050565b6000612e2c8284612da1565b915081905092915050565b7f4e487b7100000000000000000000000000000000000000000000000000000000600052601160045260246000fd5b6000819050919050565b6000612e7b82612e66565b91507fffffffffffffffffffffffffffffffffffffffffffffffffffffffffffffffff821415612eae57612ead612e37565b5b600182019050919050565b7f556e697665727369747920616c72656164792065786973747300000000000000600082015250565b6000612eef601983612a01565b9150612efa82612eb9565b602082019050919050565b60006020820190508181036000830152612f1e81612ee2565b9050919050565b7f53747564656e7420616c72656164792065786973747300000000000000000000600082015250565b6000612f5b601683612a01565b9150612f6682612f25565b602082019050919050565b60006020820190508181036000830152612f8a81612f4e565b9050919050565b7f4164647265737320616c72656164792065786973747300000000000000000000600082015250565b6000612fc7601683612a01565b9150612fd282612f91565b602082019050919050565b60006020820190508181036000830152612ff681612fba565b905091905056fea2646970667358221220a9e194094674e0d7c5de187cf38fa8c9e11f565e1d080759748b75c81c14b76964736f6c63430008090033",
  "linkReferences": {},
  "deployedLinkReferences": {}
}